{
  "contractName": "Users",
  "abi": [
    {
      "constant": true,
      "inputs": [
        {
          "name": "",
          "type": "uint256"
        }
      ],
      "name": "users",
      "outputs": [
        {
          "name": "id",
          "type": "uint256"
        },
        {
          "name": "name",
          "type": "bytes32"
        },
        {
          "name": "point",
          "type": "uint256"
        }
      ],
      "payable": false,
      "stateMutability": "view",
      "type": "function"
    },
    {
      "constant": false,
      "inputs": [
        {
          "name": "userName",
          "type": "bytes32"
        },
        {
          "name": "userPoint",
          "type": "uint256"
        }
      ],
      "name": "addUser",
      "outputs": [
        {
          "name": "userID",
          "type": "uint256"
        },
        {
          "name": "success",
          "type": "bool"
        }
      ],
      "payable": false,
      "stateMutability": "nonpayable",
      "type": "function"
    },
    {
      "constant": true,
      "inputs": [],
      "name": "getUsers",
      "outputs": [
        {
          "name": "",
          "type": "uint256[]"
        },
        {
          "name": "",
          "type": "bytes32[]"
        },
        {
          "name": "",
          "type": "uint256[]"
        }
      ],
      "payable": false,
      "stateMutability": "view",
      "type": "function"
    },
    {
      "constant": false,
      "inputs": [
        {
          "name": "id",
          "type": "uint256"
        }
      ],
      "name": "plusFive",
      "outputs": [
        {
          "name": "success",
          "type": "bool"
        }
      ],
      "payable": false,
      "stateMutability": "nonpayable",
      "type": "function"
    }
  ],
  "bytecode": "0x6060604052341561000f57600080fd5b6105e38061001e6000396000f300606060405260043610610061576000357c0100000000000000000000000000000000000000000000000000000000900463ffffffff168062ce8e3e14610066578063365b98b214610160578063a8293c28146101ad578063b69ea684146101e8575b600080fd5b341561007157600080fd5b610079610237565b60405180806020018060200180602001848103845287818151815260200191508051906020019060200280838360005b838110156100c45780820151818401526020810190506100a9565b50505050905001848103835286818151815260200191508051906020019060200280838360005b838110156101065780820151818401526020810190506100eb565b50505050905001848103825285818151815260200191508051906020019060200280838360005b8381101561014857808201518184015260208101905061012d565b50505050905001965050505050505060405180910390f35b341561016b57600080fd5b61018160048080359060200190919050506103cf565b604051808481526020018360001916600019168152602001828152602001935050505060405180910390f35b34156101b857600080fd5b6101ce6004808035906020019091905050610408565b604051808215151515815260200191505060405180910390f35b34156101f357600080fd5b61021660048080356000191690602001909190803590602001909190505061045b565b60405180838152602001821515151581526020019250505060405180910390f35b61023f610501565b610247610515565b61024f610501565b6000610259610501565b610261610515565b610269610501565b6000610273610529565b6000805490509550856040518059106102895750595b90808252806020026020018201604052509450856040518059106102aa5750595b90808252806020026020018201604052509350856040518059106102cb5750595b90808252806020026020018201604052509250600091505b6000805490508210156103bb576000828154811015156102ff57fe5b9060005260206000209060030201606060405190810160405290816000820154815260200160018201546000191660001916815260200160028201548152505090508060000151858381518110151561035457fe5b90602001906020020181815250508060200151848381518110151561037557fe5b906020019060200201906000191690816000191681525050806040015183838151811015156103a057fe5b906020019060200201818152505081806001019250506102e3565b848484985098509850505050505050909192565b6000818154811015156103de57fe5b90600052602060002090600302016000915090508060000154908060010154908060020154905083565b6000600560008381548110151561041b57fe5b9060005260206000209060030201600201540160008381548110151561043d57fe5b90600052602060002090600302016002018190555060019050919050565b600080610466610529565b6001600081548092919060010191905055925082816000018181525050848160200190600019169081600019168152505083816040018181525050600080548060010182816104b5919061054e565b9160005260206000209060030201600083909190915060008201518160000155602082015181600101906000191690556040820151816002015550505082600192509250509250929050565b602060405190810160405280600081525090565b602060405190810160405280600081525090565b6060604051908101604052806000815260200160008019168152602001600081525090565b81548183558181151161057b5760030281600302836000526020600020918201910161057a9190610580565b5b505050565b6105b491905b808211156105b0576000808201600090556001820160009055600282016000905550600301610586565b5090565b905600a165627a7a72305820f1cbd7caf6901f4bf52f5b24d540fbf34a8dbd423929c458b3cacade1566a9720029",
  "source": "// Define la versión de compilación\npragma solidity ^0.4.15;\n\n\n// Definición del contrato\ncontract Users {\n    \n\n    // Creación de la estructura con sus atributos\n    struct Participant {\n        uint id;\n        bytes32 name;\n        uint point;\n    }\n\n    // Definición de las variables de estado\n    Participant[] public users;\n    uint userCount;\n\n    // Nuevo usuario\n    function addUser(bytes32 userName, uint userPoint) public returns (uint userID, bool success) {\n        userID = userCount++;\n\n        Participant memory newUser;\n        newUser.id = userID;\n        newUser.name = userName;\n        newUser.point = userPoint;\n\n        users.push(newUser);\n        return(userID, true);\n    }\n\n    // Obtener una lista de usuarios\n    function getUsers() public constant returns (uint[], bytes32[], uint[]) {\n        uint length = users.length;\n    \n        uint[] memory usersID = new uint[](length);\n        bytes32[] memory userNames = new bytes32[](length);\n        uint[] memory userPoints = new uint[](length);\n        \n        for (uint i = 0; i < users.length; i++) {\n            Participant memory showUser;\n            showUser = users[i];\n            \n            usersID[i] = showUser.id;\n            userNames[i] = showUser.name;\n            userPoints[i] = showUser.point;\n        }\n        return(usersID, userNames, userPoints);\n    }\n    \n    // Cambiamos el total de puntos por usuario\n    function plusFive(uint id) public returns (bool success) {\n        users[id].point = users[id].point + 5;\n        return true;\n    }\n\n}",
  "sourcePath": "/home/marcos/Escritorio/scoreboard/contracts/Users.sol",
  "compiler": {
    "name": "solc",
    "version": "0.4.19+commit.c4cbbb05.Emscripten.clang"
  },
  "schemaVersion": "2.0.0",
  "updatedAt": "2018-03-20T16:08:02.573Z"
}